{
  "contractName": "AuthenticationUser",
  "abi": [
    {
      "inputs": [],
      "payable": false,
      "stateMutability": "nonpayable",
      "type": "constructor"
    },
    {
      "constant": true,
      "inputs": [
        {
          "internalType": "uint256",
          "name": "",
          "type": "uint256"
        }
      ],
      "name": "users",
      "outputs": [
        {
          "internalType": "string",
          "name": "name",
          "type": "string"
        },
        {
          "internalType": "string",
          "name": "contact",
          "type": "string"
        },
        {
          "internalType": "string",
          "name": "IMEI",
          "type": "string"
        }
      ],
      "payable": false,
      "stateMutability": "view",
      "type": "function"
    },
    {
      "constant": false,
      "inputs": [
        {
          "internalType": "string",
          "name": "_name",
          "type": "string"
        },
        {
          "internalType": "string",
          "name": "_contact",
          "type": "string"
        },
        {
          "internalType": "string",
          "name": "_IMEI",
          "type": "string"
        }
      ],
      "name": "createUser",
      "outputs": [],
      "payable": false,
      "stateMutability": "nonpayable",
      "type": "function"
    },
    {
      "constant": true,
      "inputs": [
        {
          "internalType": "uint256",
          "name": "_id",
          "type": "uint256"
        }
      ],
      "name": "getUserById",
      "outputs": [
        {
          "internalType": "string",
          "name": "_name",
          "type": "string"
        },
        {
          "internalType": "string",
          "name": "_contact",
          "type": "string"
        },
        {
          "internalType": "string",
          "name": "_IMEI",
          "type": "string"
        }
      ],
      "payable": false,
      "stateMutability": "view",
      "type": "function"
    },
    {
      "constant": true,
      "inputs": [
        {
          "internalType": "uint256",
          "name": "_id",
          "type": "uint256"
        }
      ],
      "name": "getUserNameById",
      "outputs": [
        {
          "internalType": "string",
          "name": "_name",
          "type": "string"
        }
      ],
      "payable": false,
      "stateMutability": "view",
      "type": "function"
    },
    {
      "constant": true,
      "inputs": [
        {
          "internalType": "uint256",
          "name": "_id",
          "type": "uint256"
        }
      ],
      "name": "getUserIMEIById",
      "outputs": [
        {
          "internalType": "string",
          "name": "_IMEI",
          "type": "string"
        }
      ],
      "payable": false,
      "stateMutability": "view",
      "type": "function"
    },
    {
      "constant": true,
      "inputs": [
        {
          "internalType": "string",
          "name": "fetched_IMEI",
          "type": "string"
        }
      ],
      "name": "compareIMEI",
      "outputs": [
        {
          "internalType": "string",
          "name": "_name",
          "type": "string"
        }
      ],
      "payable": false,
      "stateMutability": "view",
      "type": "function"
    }
  ],
  "bytecode": "0x60806040523480156200001157600080fd5b50620000c46040518060400160405280600581526020017f526168696d0000000000000000000000000000000000000000000000000000008152506040518060400160405280600881526020017f31323337363534360000000000000000000000000000000000000000000000008152506040518060400160405280600b81526020017f33323438363837333236340000000000000000000000000000000000000000008152506200022e60201b60201c565b620001766040518060400160405280600581526020017f4b6172696d0000000000000000000000000000000000000000000000000000008152506040518060400160405280600881526020017f31323337363934360000000000000000000000000000000000000000000000008152506040518060400160405280600b81526020017f33323437383637333236340000000000000000000000000000000000000000008152506200022e60201b60201c565b620002286040518060400160405280600581526020017f4d6168696d0000000000000000000000000000000000000000000000000000008152506040518060400160405280600881526020017f31323339363534360000000000000000000000000000000000000000000000008152506040518060400160405280600b81526020017f33323438393737333236340000000000000000000000000000000000000000008152506200022e60201b60201c565b620003b9565b62000238620002e9565b6040518060600160405280858152602001848152602001838152509050600081908060018154018082558091505090600182039060005260206000209060030201600090919290919091506000820151816000019080519060200190620002a19291906200030a565b506020820151816001019080519060200190620002c09291906200030a565b506040820151816002019080519060200190620002df9291906200030a565b5050505050505050565b60405180606001604052806060815260200160608152602001606081525090565b828054600181600116156101000203166002900490600052602060002090601f016020900481019282601f106200034d57805160ff19168380011785556200037e565b828001600101855582156200037e579182015b828111156200037d57825182559160200191906001019062000360565b5b5090506200038d919062000391565b5090565b620003b691905b80821115620003b257600081600090555060010162000398565b5090565b90565b61138b80620003c96000396000f3fe608060405234801561001057600080fd5b50600436106100625760003560e01c8063365b98b21461006757806359ae069b146101e65780635e78efc1146103cf5780636311969f1461050357806365a67582146105aa5780636ed6da9e14610651575b600080fd5b6100936004803603602081101561007d57600080fd5b81019080803590602001909291905050506107d0565b60405180806020018060200180602001848103845287818151815260200191508051906020019080838360005b838110156100db5780820151818401526020810190506100c0565b50505050905090810190601f1680156101085780820380516001836020036101000a031916815260200191505b50848103835286818151815260200191508051906020019080838360005b83811015610141578082015181840152602081019050610126565b50505050905090810190601f16801561016e5780820380516001836020036101000a031916815260200191505b50848103825285818151815260200191508051906020019080838360005b838110156101a757808201518184015260208101905061018c565b50505050905090810190601f1680156101d45780820380516001836020036101000a031916815260200191505b50965050505050505060405180910390f35b6103cd600480360360608110156101fc57600080fd5b810190808035906020019064010000000081111561021957600080fd5b82018360208201111561022b57600080fd5b8035906020019184600183028401116401000000008311171561024d57600080fd5b91908080601f016020809104026020016040519081016040528093929190818152602001838380828437600081840152601f19601f820116905080830192505050505050509192919290803590602001906401000000008111156102b057600080fd5b8201836020820111156102c257600080fd5b803590602001918460018302840111640100000000831117156102e457600080fd5b91908080601f016020809104026020016040519081016040528093929190818152602001838380828437600081840152601f19601f8201169050808301925050505050505091929192908035906020019064010000000081111561034757600080fd5b82018360208201111561035957600080fd5b8035906020019184600183028401116401000000008311171561037b57600080fd5b91908080601f016020809104026020016040519081016040528093929190818152602001838380828437600081840152601f19601f8201169050808301925050505050505091929192905050506109cf565b005b610488600480360360208110156103e557600080fd5b810190808035906020019064010000000081111561040257600080fd5b82018360208201111561041457600080fd5b8035906020019184600183028401116401000000008311171561043657600080fd5b91908080601f016020809104026020016040519081016040528093929190818152602001838380828437600081840152601f19601f820116905080830192505050505050509192919290505050610a82565b6040518080602001828103825283818151815260200191508051906020019080838360005b838110156104c85780820151818401526020810190506104ad565b50505050905090810190601f1680156104f55780820380516001836020036101000a031916815260200191505b509250505060405180910390f35b61052f6004803603602081101561051957600080fd5b8101908080359060200190929190505050610c05565b6040518080602001828103825283818151815260200191508051906020019080838360005b8381101561056f578082015181840152602081019050610554565b50505050905090810190601f16801561059c5780820380516001836020036101000a031916815260200191505b509250505060405180910390f35b6105d6600480360360208110156105c057600080fd5b8101908080359060200190929190505050610e2a565b6040518080602001828103825283818151815260200191508051906020019080838360005b838110156106165780820151818401526020810190506105fb565b50505050905090810190601f1680156106435780820380516001836020036101000a031916815260200191505b509250505060405180910390f35b61067d6004803603602081101561066757600080fd5b810190808035906020019092919050505061104f565b60405180806020018060200180602001848103845287818151815260200191508051906020019080838360005b838110156106c55780820151818401526020810190506106aa565b50505050905090810190601f1680156106f25780820380516001836020036101000a031916815260200191505b50848103835286818151815260200191508051906020019080838360005b8381101561072b578082015181840152602081019050610710565b50505050905090810190601f1680156107585780820380516001836020036101000a031916815260200191505b50848103825285818151815260200191508051906020019080838360005b83811015610791578082015181840152602081019050610776565b50505050905090810190601f1680156107be5780820380516001836020036101000a031916815260200191505b50965050505050505060405180910390f35b600081815481106107dd57fe5b9060005260206000209060030201600091509050806000018054600181600116156101000203166002900480601f0160208091040260200160405190810160405280929190818152602001828054600181600116156101000203166002900480156108895780601f1061085e57610100808354040283529160200191610889565b820191906000526020600020905b81548152906001019060200180831161086c57829003601f168201915b505050505090806001018054600181600116156101000203166002900480601f0160208091040260200160405190810160405280929190818152602001828054600181600116156101000203166002900480156109275780601f106108fc57610100808354040283529160200191610927565b820191906000526020600020905b81548152906001019060200180831161090a57829003601f168201915b505050505090806002018054600181600116156101000203166002900480601f0160208091040260200160405190810160405280929190818152602001828054600181600116156101000203166002900480156109c55780601f1061099a576101008083540402835291602001916109c5565b820191906000526020600020905b8154815290600101906020018083116109a857829003601f168201915b5050505050905083565b6109d7611290565b6040518060600160405280858152602001848152602001838152509050600081908060018154018082558091505090600182039060005260206000209060030201600090919290919091506000820151816000019080519060200190610a3e9291906112b1565b506020820151816001019080519060200190610a5b9291906112b1565b506040820151816002019080519060200190610a789291906112b1565b5050505050505050565b6060600080905060008090505b6003811015610bc5576060610aa382610c05565b9050845181511415610b9757846040516020018082805190602001908083835b60208310610ae65780518252602082019150602081019050602083039250610ac3565b6001836020036101000a03801982511681845116808217855250505050505090500191505060405160208183030381529060405280519060200120816040516020018082805190602001908083835b60208310610b585780518252602082019150602081019050602083039250610b35565b6001836020036101000a038019825116818451168082178552505050505050905001915050604051602081830303815290604052805190602001201492505b600115158315151415610bb757610bad82610e2a565b9350505050610c00565b508080600101915050610a8f565b506040518060400160405280600781526020017f554e4b4e4f574e000000000000000000000000000000000000000000000000008152509150505b919050565b6060610c0f611290565b60008381548110610c1c57fe5b9060005260206000209060030201604051806060016040529081600082018054600181600116156101000203166002900480601f016020809104026020016040519081016040528092919081815260200182805460018160011615610100020316600290048015610cce5780601f10610ca357610100808354040283529160200191610cce565b820191906000526020600020905b815481529060010190602001808311610cb157829003601f168201915b50505050508152602001600182018054600181600116156101000203166002900480601f016020809104026020016040519081016040528092919081815260200182805460018160011615610100020316600290048015610d705780601f10610d4557610100808354040283529160200191610d70565b820191906000526020600020905b815481529060010190602001808311610d5357829003601f168201915b50505050508152602001600282018054600181600116156101000203166002900480601f016020809104026020016040519081016040528092919081815260200182805460018160011615610100020316600290048015610e125780601f10610de757610100808354040283529160200191610e12565b820191906000526020600020905b815481529060010190602001808311610df557829003601f168201915b50505050508152505090508060400151915050919050565b6060610e34611290565b60008381548110610e4157fe5b9060005260206000209060030201604051806060016040529081600082018054600181600116156101000203166002900480601f016020809104026020016040519081016040528092919081815260200182805460018160011615610100020316600290048015610ef35780601f10610ec857610100808354040283529160200191610ef3565b820191906000526020600020905b815481529060010190602001808311610ed657829003601f168201915b50505050508152602001600182018054600181600116156101000203166002900480601f016020809104026020016040519081016040528092919081815260200182805460018160011615610100020316600290048015610f955780601f10610f6a57610100808354040283529160200191610f95565b820191906000526020600020905b815481529060010190602001808311610f7857829003601f168201915b50505050508152602001600282018054600181600116156101000203166002900480601f0160208091040260200160405190810160405280929190818152602001828054600181600116156101000203166002900480156110375780601f1061100c57610100808354040283529160200191611037565b820191906000526020600020905b81548152906001019060200180831161101a57829003601f168201915b50505050508152505090508060000151915050919050565b606080606061105c611290565b6000858154811061106957fe5b9060005260206000209060030201604051806060016040529081600082018054600181600116156101000203166002900480601f01602080910402602001604051908101604052809291908181526020018280546001816001161561010002031660029004801561111b5780601f106110f05761010080835404028352916020019161111b565b820191906000526020600020905b8154815290600101906020018083116110fe57829003601f168201915b50505050508152602001600182018054600181600116156101000203166002900480601f0160208091040260200160405190810160405280929190818152602001828054600181600116156101000203166002900480156111bd5780601f10611192576101008083540402835291602001916111bd565b820191906000526020600020905b8154815290600101906020018083116111a057829003601f168201915b50505050508152602001600282018054600181600116156101000203166002900480601f01602080910402602001604051908101604052809291908181526020018280546001816001161561010002031660029004801561125f5780601f106112345761010080835404028352916020019161125f565b820191906000526020600020905b81548152906001019060200180831161124257829003601f168201915b5050505050815250509050806000015181602001518260400151829250819150809050935093509350509193909250565b60405180606001604052806060815260200160608152602001606081525090565b828054600181600116156101000203166002900490600052602060002090601f016020900481019282601f106112f257805160ff1916838001178555611320565b82800160010185558215611320579182015b8281111561131f578251825591602001919060010190611304565b5b50905061132d9190611331565b5090565b61135391905b8082111561134f576000816000905550600101611337565b5090565b9056fea265627a7a72315820dabac2da64d00b7efd44ef67f469b448f4e9d72da13465e0cc0981ed4ffde96e64736f6c63430005100032",
  "source": "// SPDX-License-Identifier: MIT\npragma solidity >=0.4.22 ;\n\ncontract AuthenticationUser{\n    \n\n    struct User{\n        string name;\n        string contact;\n        string IMEI;\n    }\n    // mapping (uint=> User) public users;\n    User[] public users;\n   \n    constructor() public{\n        createUser(\"Rahim\",\"12376546\",\"32486873264\");\n        createUser(\"Karim\",\"12376946\",\"32478673264\");\n        createUser(\"Mahim\",\"12396546\",\"32489773264\");\n\n    }\n\n    function createUser(string memory _name, string memory _contact, string memory _IMEI)public {\n        // users[_id]=User(_name,_contact,_IMEI);\n        User memory user=User(_name,_contact,_IMEI);\n        users.push(user);\n    }\n    function getUserById(uint _id) public view returns (string memory _name, \n                                                        string memory  _contact,string memory  _IMEI){\n        \n        User memory user=users[_id];\n        return(user.name,user.contact,user.IMEI);\n\n\n    }\n    function getUserNameById(uint _id) public view returns (string memory _name){\n        \n        User memory user=users[_id];\n        return(user.name);\n\n\n    }\n    function getUserIMEIById(uint _id) public view returns (string memory  _IMEI){\n        \n        User memory user=users[_id];\n        return(user.IMEI);\n\n\n    }\n\n    function compareIMEI(string memory fetched_IMEI) public view returns (string memory _name){\n\n        bool res=false;\n        for(uint i=0;i<3;i++){\n            string memory  userIMEI= getUserIMEIById(i);\n            if(bytes(userIMEI).length== bytes(fetched_IMEI).length){\n                res=(keccak256(abi.encodePacked(userIMEI))==keccak256(abi.encodePacked(fetched_IMEI)));\n                \n            }\n            if(res==true){\n                return getUserNameById(i);\n            }\n\n        }\n        return \"UNKNOWN\";\n\n    }\n\n\n\n}",
  "sourcePath": "/home/rehnuma/Documents/Blockchain Practice/hello/contracts/AuthenticationUser.sol",
  "compiler": {
    "name": "solc",
    "version": "0.5.16+commit.9c3226ce.Emscripten.clang"
  },
  "schemaVersion": "3.2.5",
  "updatedAt": "2020-10-11T03:53:19.970Z",
  "networkType": "ethereum",
  "devdoc": {
    "methods": {}
  },
  "userdoc": {
    "methods": {}
  }
}