{
  "contractName": "HelloWorld",
  "abi": [
    {
      "constant": true,
      "inputs": [],
      "name": "main_IMEI",
      "outputs": [
        {
          "internalType": "string",
          "name": "",
          "type": "string"
        }
      ],
      "payable": false,
      "stateMutability": "view",
      "type": "function"
    },
    {
      "constant": true,
      "inputs": [],
      "name": "payload",
      "outputs": [
        {
          "internalType": "string",
          "name": "",
          "type": "string"
        }
      ],
      "payable": false,
      "stateMutability": "view",
      "type": "function"
    },
    {
      "constant": false,
      "inputs": [
        {
          "internalType": "string",
          "name": "content",
          "type": "string"
        }
      ],
      "name": "setPayload",
      "outputs": [],
      "payable": false,
      "stateMutability": "nonpayable",
      "type": "function"
    },
    {
      "constant": true,
      "inputs": [
        {
          "internalType": "string",
          "name": "fetched_IMEI",
          "type": "string"
        }
      ],
      "name": "compareIMEI",
      "outputs": [
        {
          "internalType": "bool",
          "name": "",
          "type": "bool"
        }
      ],
      "payable": false,
      "stateMutability": "view",
      "type": "function"
    }
  ],
  "bytecode": "0x60806040526040518060400160405280600681526020017f31323334353600000000000000000000000000000000000000000000000000008152506000908051906020019061004f929190610062565b5034801561005c57600080fd5b50610107565b828054600181600116156101000203166002900490600052602060002090601f016020900481019282601f106100a357805160ff19168380011785556100d1565b828001600101855582156100d1579182015b828111156100d05782518255916020019190600101906100b5565b5b5090506100de91906100e2565b5090565b61010491905b808211156101005760008160009055506001016100e8565b5090565b90565b610634806101166000396000f3fe608060405234801561001057600080fd5b506004361061004c5760003560e01c80633480cd41146100515780635e78efc1146100d4578063a878f858146101a7578063e1ad76991461022a575b600080fd5b6100596102e5565b6040518080602001828103825283818151815260200191508051906020019080838360005b8381101561009957808201518184015260208101905061007e565b50505050905090810190601f1680156100c65780820380516001836020036101000a031916815260200191505b509250505060405180910390f35b61018d600480360360208110156100ea57600080fd5b810190808035906020019064010000000081111561010757600080fd5b82018360208201111561011957600080fd5b8035906020019184600183028401116401000000008311171561013b57600080fd5b91908080601f016020809104026020016040519081016040528093929190818152602001838380828437600081840152601f19601f820116905080830192505050505050509192919290505050610383565b604051808215151515815260200191505060405180910390f35b6101af6104a2565b6040518080602001828103825283818151815260200191508051906020019080838360005b838110156101ef5780820151818401526020810190506101d4565b50505050905090810190601f16801561021c5780820380516001836020036101000a031916815260200191505b509250505060405180910390f35b6102e36004803603602081101561024057600080fd5b810190808035906020019064010000000081111561025d57600080fd5b82018360208201111561026f57600080fd5b8035906020019184600183028401116401000000008311171561029157600080fd5b91908080601f016020809104026020016040519081016040528093929190818152602001838380828437600081840152601f19601f820116905080830192505050505050509192919290505050610540565b005b60008054600181600116156101000203166002900480601f01602080910402602001604051908101604052809291908181526020018280546001816001161561010002031660029004801561037b5780601f106103505761010080835404028352916020019161037b565b820191906000526020600020905b81548152906001019060200180831161035e57829003601f168201915b505050505081565b600081516000805460018160011615610100020316600290049050146103ac576000905061049d565b816040516020018082805190602001908083835b602083106103e357805182526020820191506020810190506020830392506103c0565b6001836020036101000a038019825116818451168082178552505050505050905001915050604051602081830303815290604052805190602001206000604051602001808280546001816001161561010002031660029004801561047e5780601f1061045c57610100808354040283529182019161047e565b820191906000526020600020905b81548152906001019060200180831161046a575b5050915050604051602081830303815290604052805190602001201490505b919050565b60018054600181600116156101000203166002900480601f0160208091040260200160405190810160405280929190818152602001828054600181600116156101000203166002900480156105385780601f1061050d57610100808354040283529160200191610538565b820191906000526020600020905b81548152906001019060200180831161051b57829003601f168201915b505050505081565b806001908051906020019061055692919061055a565b5050565b828054600181600116156101000203166002900490600052602060002090601f016020900481019282601f1061059b57805160ff19168380011785556105c9565b828001600101855582156105c9579182015b828111156105c85782518255916020019190600101906105ad565b5b5090506105d691906105da565b5090565b6105fc91905b808211156105f85760008160009055506001016105e0565b5090565b9056fea265627a7a72315820eb919cf389e5fc5c10df959412b8dfd2731f2cda94d4a38c84021ebd9f9d951764736f6c63430005100032",
  "source": "// SPDX-License-Identifier: MIT\npragma solidity >=0.4.22 <0.8.0;\n\ncontract HelloWorld{\n\n//   string public greetings;\n\n\n//   function sayHello(string memory a) public{\n//         greetings= a;\n//     }\n    string public main_IMEI=\"123456\";\n    string public payload;\n    function setPayload(string memory content) public {\n        payload = content;\n    }\n    function compareIMEI(string memory fetched_IMEI) public view returns (bool){\n        if(bytes(main_IMEI).length!=bytes(fetched_IMEI).length){\n            return false;\n        }else{\n            return (keccak256(abi.encodePacked(main_IMEI))==keccak256(abi.encodePacked(fetched_IMEI)));\n        }\n\n    }\n}",
  "sourcePath": "/home/rehnuma/Documents/Blockchain Practice/hello/contracts/HelloWorld.sol",
  "compiler": {
    "name": "solc",
    "version": "0.5.16+commit.9c3226ce.Emscripten.clang"
  },
  "schemaVersion": "3.2.5",
  "updatedAt": "2020-10-11T03:53:19.394Z",
  "networkType": "ethereum",
  "devdoc": {
    "methods": {}
  },
  "userdoc": {
    "methods": {}
  }
}